{
  "contractName": "EcommerceStore",
  "abi": [
    {
      "constant": true,
      "inputs": [],
      "name": "productIndex",
      "outputs": [
        {
          "name": "",
          "type": "uint256"
        }
      ],
      "payable": false,
      "stateMutability": "view",
      "type": "function"
    },
    {
      "inputs": [],
      "payable": false,
      "stateMutability": "nonpayable",
      "type": "constructor"
    },
    {
      "constant": false,
      "inputs": [
        {
          "name": "_productId",
          "type": "uint256"
        },
        {
          "name": "_bid",
          "type": "bytes32"
        }
      ],
      "name": "bid",
      "outputs": [
        {
          "name": "",
          "type": "bool"
        }
      ],
      "payable": true,
      "stateMutability": "payable",
      "type": "function"
    },
    {
      "constant": false,
      "inputs": [
        {
          "name": "_productId",
          "type": "uint256"
        },
        {
          "name": "_amountBid",
          "type": "string"
        },
        {
          "name": "_secret",
          "type": "string"
        }
      ],
      "name": "revealBid",
      "outputs": [
        {
          "name": "",
          "type": "bool"
        }
      ],
      "payable": false,
      "stateMutability": "nonpayable",
      "type": "function"
    },
    {
      "constant": false,
      "inputs": [
        {
          "name": "_name",
          "type": "string"
        },
        {
          "name": "_category",
          "type": "string"
        },
        {
          "name": "_imageLink",
          "type": "string"
        },
        {
          "name": "_descLink",
          "type": "string"
        },
        {
          "name": "_auctionStartTime",
          "type": "uint256"
        },
        {
          "name": "_auctionEndTime",
          "type": "uint256"
        },
        {
          "name": "_startPrice",
          "type": "uint256"
        },
        {
          "name": "_condition",
          "type": "uint8"
        }
      ],
      "name": "addProductToStore",
      "outputs": [],
      "payable": false,
      "stateMutability": "nonpayable",
      "type": "function"
    },
    {
      "constant": true,
      "inputs": [
        {
          "name": "_productId",
          "type": "uint256"
        }
      ],
      "name": "getProduct",
      "outputs": [
        {
          "name": "",
          "type": "uint256"
        },
        {
          "name": "",
          "type": "string"
        },
        {
          "name": "",
          "type": "string"
        },
        {
          "name": "",
          "type": "string"
        },
        {
          "name": "",
          "type": "string"
        },
        {
          "name": "",
          "type": "uint256"
        },
        {
          "name": "",
          "type": "uint256"
        },
        {
          "name": "",
          "type": "uint256"
        },
        {
          "name": "",
          "type": "uint8"
        },
        {
          "name": "",
          "type": "uint8"
        }
      ],
      "payable": false,
      "stateMutability": "view",
      "type": "function"
    },
    {
      "constant": true,
      "inputs": [
        {
          "name": "_productId",
          "type": "uint256"
        }
      ],
      "name": "highestBidderInfo",
      "outputs": [
        {
          "name": "",
          "type": "address"
        },
        {
          "name": "",
          "type": "uint256"
        },
        {
          "name": "",
          "type": "uint256"
        }
      ],
      "payable": false,
      "stateMutability": "view",
      "type": "function"
    },
    {
      "constant": true,
      "inputs": [
        {
          "name": "_productId",
          "type": "uint256"
        }
      ],
      "name": "totalBids",
      "outputs": [
        {
          "name": "",
          "type": "uint256"
        }
      ],
      "payable": false,
      "stateMutability": "view",
      "type": "function"
    }
  ],
  "bytecode": "0x608060405234801561001057600080fd5b5060008081905550612052806100276000396000f300608060405260043610610083576000357c0100000000000000000000000000000000000000000000000000000000900463ffffffff16806328e3d1901461008857806356b95350146100c9578063b9db15b41461022f578063c897d5a61461045f578063ce818ea91461048a578063ea1591bb14610505578063f85f196e1461054b575b600080fd5b34801561009457600080fd5b506100b36004803603810190808035906020019092919050505061061c565b6040518082815260200191505060405180910390f35b3480156100d557600080fd5b5061022d600480360381019080803590602001908201803590602001908080601f0160208091040260200160405190810160405280939291908181526020018383808284378201915050505050509192919290803590602001908201803590602001908080601f0160208091040260200160405190810160405280939291908181526020018383808284378201915050505050509192919290803590602001908201803590602001908080601f0160208091040260200160405190810160405280939291908181526020018383808284378201915050505050509192919290803590602001908201803590602001908080601f0160208091040260200160405190810160405280939291908181526020018383808284378201915050505050509192919290803590602001909291908035906020019092919080359060200190929190803560ff169060200190929190505050610a44565b005b34801561023b57600080fd5b5061025a60048036038101908080359060200190929190505050610d0a565b604051808b8152602001806020018060200180602001806020018a815260200189815260200188815260200187600281111561029257fe5b60ff1681526020018660018111156102a657fe5b60ff16815260200185810385528e818151815260200191508051906020019080838360005b838110156102e65780820151818401526020810190506102cb565b50505050905090810190601f1680156103135780820380516001836020036101000a031916815260200191505b5085810384528d818151815260200191508051906020019080838360005b8381101561034c578082015181840152602081019050610331565b50505050905090810190601f1680156103795780820380516001836020036101000a031916815260200191505b5085810383528c818151815260200191508051906020019080838360005b838110156103b2578082015181840152602081019050610397565b50505050905090810190601f1680156103df5780820380516001836020036101000a031916815260200191505b5085810382528b818151815260200191508051906020019080838360005b838110156104185780820151818401526020810190506103fd565b50505050905090810190601f1680156104455780820380516001836020036101000a031916815260200191505b509e50505050505050505050505050505060405180910390f35b34801561046b57600080fd5b50610474611194565b6040518082815260200191505060405180910390f35b34801561049657600080fd5b506104b56004803603810190808035906020019092919050505061119a565b604051808473ffffffffffffffffffffffffffffffffffffffff1673ffffffffffffffffffffffffffffffffffffffff168152602001838152602001828152602001935050505060405180910390f35b6105316004803603810190808035906020019092919080356000191690602001909291905050506115d7565b604051808215151515815260200191505060405180910390f35b34801561055757600080fd5b5061060260048036038101908080359060200190929190803590602001908201803590602001908080601f0160208091040260200160405190810160405280939291908181526020018383808284378201915050505050509192919290803590602001908201803590602001908080601f01602080910402602001604051908101604052809392919081815260200183838082843782019150505050505091929192905050506117c8565b604051808215151515815260200191505060405180910390f35b6000610626611ea4565b600160006002600086815260200190815260200160002060009054906101000a900473ffffffffffffffffffffffffffffffffffffffff1673ffffffffffffffffffffffffffffffffffffffff1673ffffffffffffffffffffffffffffffffffffffff16815260200190815260200160002060008481526020019081526020016000206101c0604051908101604052908160008201548152602001600182018054600181600116156101000203166002900480601f0160208091040260200160405190810160405280929190818152602001828054600181600116156101000203166002900480156107595780601f1061072e57610100808354040283529160200191610759565b820191906000526020600020905b81548152906001019060200180831161073c57829003601f168201915b50505050508152602001600282018054600181600116156101000203166002900480601f0160208091040260200160405190810160405280929190818152602001828054600181600116156101000203166002900480156107fb5780601f106107d0576101008083540402835291602001916107fb565b820191906000526020600020905b8154815290600101906020018083116107de57829003601f168201915b50505050508152602001600382018054600181600116156101000203166002900480601f01602080910402602001604051908101604052809291908181526020018280546001816001161561010002031660029004801561089d5780601f106108725761010080835404028352916020019161089d565b820191906000526020600020905b81548152906001019060200180831161088057829003601f168201915b50505050508152602001600482018054600181600116156101000203166002900480601f01602080910402602001604051908101604052809291908181526020018280546001816001161561010002031660029004801561093f5780601f106109145761010080835404028352916020019161093f565b820191906000526020600020905b81548152906001019060200180831161092257829003601f168201915b505050505081526020016005820154815260200160068201548152602001600782015481526020016008820160009054906101000a900473ffffffffffffffffffffffffffffffffffffffff1673ffffffffffffffffffffffffffffffffffffffff1673ffffffffffffffffffffffffffffffffffffffff16815260200160098201548152602001600a8201548152602001600b8201548152602001600c820160009054906101000a900460ff1660028111156109f857fe5b6002811115610a0357fe5b8152602001600c820160019054906101000a900460ff166001811115610a2557fe5b6001811115610a3057fe5b815250509050806101600151915050919050565b610a4c611ea4565b8385101515610a5a57600080fd5b600160008082825401925050819055506101c06040519081016040528060005481526020018a8152602001898152602001888152602001878152602001868152602001858152602001848152602001600073ffffffffffffffffffffffffffffffffffffffff16815260200160008152602001600081526020016000815260200160006002811115610ae857fe5b8152602001836001811115610af957fe5b815250905080600160003373ffffffffffffffffffffffffffffffffffffffff1673ffffffffffffffffffffffffffffffffffffffff168152602001908152602001600020600080548152602001908152602001600020600082015181600001556020820151816001019080519060200190610b76929190611f40565b506040820151816002019080519060200190610b93929190611f40565b506060820151816003019080519060200190610bb0929190611f40565b506080820151816004019080519060200190610bcd929190611f40565b5060a0820151816005015560c0820151816006015560e082015181600701556101008201518160080160006101000a81548173ffffffffffffffffffffffffffffffffffffffff021916908373ffffffffffffffffffffffffffffffffffffffff160217905550610120820151816009015561014082015181600a015561016082015181600b015561018082015181600c0160006101000a81548160ff02191690836002811115610c7a57fe5b02179055506101a082015181600c0160016101000a81548160ff02191690836001811115610ca457fe5b021790555090505033600260008054815260200190815260200160002060006101000a81548173ffffffffffffffffffffffffffffffffffffffff021916908373ffffffffffffffffffffffffffffffffffffffff160217905550505050505050505050565b60006060806060806000806000806000610d22611ea4565b60016000600260008f815260200190815260200160002060009054906101000a900473ffffffffffffffffffffffffffffffffffffffff1673ffffffffffffffffffffffffffffffffffffffff1673ffffffffffffffffffffffffffffffffffffffff16815260200190815260200160002060008d81526020019081526020016000206101c0604051908101604052908160008201548152602001600182018054600181600116156101000203166002900480601f016020809104026020016040519081016040528092919081815260200182805460018160011615610100020316600290048015610e555780601f10610e2a57610100808354040283529160200191610e55565b820191906000526020600020905b815481529060010190602001808311610e3857829003601f168201915b50505050508152602001600282018054600181600116156101000203166002900480601f016020809104026020016040519081016040528092919081815260200182805460018160011615610100020316600290048015610ef75780601f10610ecc57610100808354040283529160200191610ef7565b820191906000526020600020905b815481529060010190602001808311610eda57829003601f168201915b50505050508152602001600382018054600181600116156101000203166002900480601f016020809104026020016040519081016040528092919081815260200182805460018160011615610100020316600290048015610f995780601f10610f6e57610100808354040283529160200191610f99565b820191906000526020600020905b815481529060010190602001808311610f7c57829003601f168201915b50505050508152602001600482018054600181600116156101000203166002900480601f01602080910402602001604051908101604052809291908181526020018280546001816001161561010002031660029004801561103b5780601f106110105761010080835404028352916020019161103b565b820191906000526020600020905b81548152906001019060200180831161101e57829003601f168201915b505050505081526020016005820154815260200160068201548152602001600782015481526020016008820160009054906101000a900473ffffffffffffffffffffffffffffffffffffffff1673ffffffffffffffffffffffffffffffffffffffff1673ffffffffffffffffffffffffffffffffffffffff16815260200160098201548152602001600a8201548152602001600b8201548152602001600c820160009054906101000a900460ff1660028111156110f457fe5b60028111156110ff57fe5b8152602001600c820160019054906101000a900460ff16600181111561112157fe5b600181111561112c57fe5b815250509050806000015181602001518260400151836060015184608001518560a001518660c001518760e00151886101800151896101a001518898508797508696508595509a509a509a509a509a509a509a509a509a509a50509193959799509193959799565b60005481565b60008060006111a7611ea4565b600160006002600088815260200190815260200160002060009054906101000a900473ffffffffffffffffffffffffffffffffffffffff1673ffffffffffffffffffffffffffffffffffffffff1673ffffffffffffffffffffffffffffffffffffffff16815260200190815260200160002060008681526020019081526020016000206101c0604051908101604052908160008201548152602001600182018054600181600116156101000203166002900480601f0160208091040260200160405190810160405280929190818152602001828054600181600116156101000203166002900480156112da5780601f106112af576101008083540402835291602001916112da565b820191906000526020600020905b8154815290600101906020018083116112bd57829003601f168201915b50505050508152602001600282018054600181600116156101000203166002900480601f01602080910402602001604051908101604052809291908181526020018280546001816001161561010002031660029004801561137c5780601f106113515761010080835404028352916020019161137c565b820191906000526020600020905b81548152906001019060200180831161135f57829003601f168201915b50505050508152602001600382018054600181600116156101000203166002900480601f01602080910402602001604051908101604052809291908181526020018280546001816001161561010002031660029004801561141e5780601f106113f35761010080835404028352916020019161141e565b820191906000526020600020905b81548152906001019060200180831161140157829003601f168201915b50505050508152602001600482018054600181600116156101000203166002900480601f0160208091040260200160405190810160405280929190818152602001828054600181600116156101000203166002900480156114c05780601f10611495576101008083540402835291602001916114c0565b820191906000526020600020905b8154815290600101906020018083116114a357829003601f168201915b505050505081526020016005820154815260200160068201548152602001600782015481526020016008820160009054906101000a900473ffffffffffffffffffffffffffffffffffffffff1673ffffffffffffffffffffffffffffffffffffffff1673ffffffffffffffffffffffffffffffffffffffff16815260200160098201548152602001600a8201548152602001600b8201548152602001600c820160009054906101000a900460ff16600281111561157957fe5b600281111561158457fe5b8152602001600c820160019054906101000a900460ff1660018111156115a657fe5b60018111156115b157fe5b815250509050806101000151816101200151826101400151935093509350509193909250565b600080600160006002600087815260200190815260200160002060009054906101000a900473ffffffffffffffffffffffffffffffffffffffff1673ffffffffffffffffffffffffffffffffffffffff1673ffffffffffffffffffffffffffffffffffffffff168152602001908152602001600020600085815260200190815260200160002090508060050154421015151561167257600080fd5b8060060154421115151561168557600080fd5b80600701543411151561169757600080fd5b6080604051908101604052803373ffffffffffffffffffffffffffffffffffffffff1681526020018581526020013481526020016000151581525081600d0160003373ffffffffffffffffffffffffffffffffffffffff1673ffffffffffffffffffffffffffffffffffffffff1681526020019081526020016000206000856000191660001916815260200190815260200160002060008201518160000160006101000a81548173ffffffffffffffffffffffffffffffffffffffff021916908373ffffffffffffffffffffffffffffffffffffffff160217905550602082015181600101556040820151816002015560608201518160030160006101000a81548160ff021916908315150217905550905050600181600b0160008282540192505081905550600191505092915050565b60008060006117d5611fc0565b600080600088886040518083805190602001908083835b60208310151561181157805182526020820191506020810190506020830392506117ec565b6001836020036101000a03801982511681845116808217855250505050505090500182805190602001908083835b602083101515611864578051825260208201915060208101905060208303925061183f565b6001836020036101000a038019825116818451168082178552505050505050905001925050506040518091039020955060016000600260008d815260200190815260200160002060009054906101000a900473ffffffffffffffffffffffffffffffffffffffff1673ffffffffffffffffffffffffffffffffffffffff1673ffffffffffffffffffffffffffffffffffffffff16815260200190815260200160002060008b8152602001908152602001600020945084600601544211151561192b57600080fd5b84600d0160003373ffffffffffffffffffffffffffffffffffffffff1673ffffffffffffffffffffffffffffffffffffffff16815260200190815260200160002060008760001916600019168152602001908152602001600020608060405190810160405290816000820160009054906101000a900473ffffffffffffffffffffffffffffffffffffffff1673ffffffffffffffffffffffffffffffffffffffff1673ffffffffffffffffffffffffffffffffffffffff16815260200160018201548152602001600282015481526020016003820160009054906101000a900460ff16151515158152505093506000846000015173ffffffffffffffffffffffffffffffffffffffff16111515611a4157600080fd5b6000151584606001511515141515611a5857600080fd5b611a6189611c9a565b91508360400151905080821015611a7a57809250611bc6565b60008560080160009054906101000a900473ffffffffffffffffffffffffffffffffffffffff1673ffffffffffffffffffffffffffffffffffffffff161415611aef573373ffffffffffffffffffffffffffffffffffffffff168560080160009054906101000a905050508181039250611bc5565b8460090154821115611b9c578460080160009054906101000a900473ffffffffffffffffffffffffffffffffffffffff1673ffffffffffffffffffffffffffffffffffffffff166108fc86600901549081150290604051600060405180830381858888f19350505050158015611b69573d6000803e3d6000fd5b503373ffffffffffffffffffffffffffffffffffffffff168560080160009054906101000a905050508181039250611bc4565b846009015482111515611bc35784600a0154821115611bbf578185600a01819055505b8092505b5b5b5b600185600d0160003373ffffffffffffffffffffffffffffffffffffffff1673ffffffffffffffffffffffffffffffffffffffff1681526020019081526020016000206000886000191660001916815260200190815260200160002060030160006101000a81548160ff0219169083151502179055506000831115611c8d573373ffffffffffffffffffffffffffffffffffffffff166108fc849081150290604051600060405180830381858888f19350505050158015611c8b573d6000803e3d6000fd5b505b5050505050509392505050565b6000606060008084925060009150600090505b8251811015611e995760307f0100000000000000000000000000000000000000000000000000000000000000028382815181101515611ce857fe5b9060200101517f010000000000000000000000000000000000000000000000000000000000000090047f0100000000000000000000000000000000000000000000000000000000000000027effffffffffffffffffffffffffffffffffffffffffffffffffffffffffffff191610158015611e00575060397f0100000000000000000000000000000000000000000000000000000000000000028382815181101515611d9057fe5b9060200101517f010000000000000000000000000000000000000000000000000000000000000090047f0100000000000000000000000000000000000000000000000000000000000000027effffffffffffffffffffffffffffffffffffffffffffffffffffffffffffff191611155b15611e8c5760308382815181101515611e1557fe5b9060200101517f010000000000000000000000000000000000000000000000000000000000000090047f0100000000000000000000000000000000000000000000000000000000000000027f0100000000000000000000000000000000000000000000000000000000000000900403600a83020191505b8080600101915050611cad565b819350505050919050565b6101c0604051908101604052806000815260200160608152602001606081526020016060815260200160608152602001600081526020016000815260200160008152602001600073ffffffffffffffffffffffffffffffffffffffff16815260200160008152602001600081526020016000815260200160006002811115611f2857fe5b815260200160006001811115611f3a57fe5b81525090565b828054600181600116156101000203166002900490600052602060002090601f016020900481019282601f10611f8157805160ff1916838001178555611faf565b82800160010185558215611faf579182015b82811115611fae578251825591602001919060010190611f93565b5b509050611fbc9190612001565b5090565b608060405190810160405280600073ffffffffffffffffffffffffffffffffffffffff16815260200160008152602001600081526020016000151581525090565b61202391905b8082111561201f576000816000905550600101612007565b5090565b905600a165627a7a7230582013505f6e1f2e41b2cc3ad6ddb060e91ffdd94247ba1aec9cfdef006986adf2740029",
  "source": "pragma solidity ^0.4.13;\n\n/// @title Decentral Market\n/// @author @crusyn by way of Mahesh Zastrin\ncontract EcommerceStore {\n enum ProductStatus { Open, Sold, Unsold }\n enum ProductCondition { New, Used }\n\n uint public productIndex;\n /// @notice This is the mapping used to keep track of which products are\n /// in which merchant's store - address of store -> id of Product -> Product Struct\n mapping (address => mapping(uint => Product)) stores;\n /// @notice productId -> address of store.  This contians a listing of\n /// products and which store contain them, this doesn't link you to the actual\n /// product struct.  Each product only lives in 1 store (maybe)\n mapping (uint => address) productIdInStore;\n\n struct Bid {\n   address bidder;\n   uint productId;\n   uint value;  //Amount of ETH sent by the bidder in the bid call\n   bool revealed;  //strange variable, not sure what it is for, flag for if\n//has concluded?  Nvm, used when the bid is revealed.\n }\n\n struct Product {\n  uint id;\n  string name;\n  string category;\n  string imageLink;\n  string descLink;\n  uint auctionStartTime;\n  uint auctionEndTime;\n  uint startPrice;\n  //these are set by system\n  address highestBidder;\n  uint highestBid;\n  uint secondHighestBid;\n  uint totalBids;\n  ProductStatus status;\n  //until here\n  ProductCondition condition;\n\n  /*The key is the address of the bidder and value is the mapping of the\n  hashed bid string to the bid struct.*/\n  mapping (address => mapping (bytes32 => Bid)) bids;\n}\n\n\n\n function EcommerceStore() public {\n  productIndex = 0;\n }\n\n /// @notice this is a public function that let's a user bid on a product.\n /// To place a bid we need to tell the contract what we’re bidding on,\n /// send some ETH that is greater than the bid amount (if we want the bid\n /// to be valid) and encrypt our actual bid (with a secret string).\n /// @dev\n /// @param _productId of the product the user want to bit on\n /// @param _bid encrypted string of the bid amount hased with a secret\n /// @return returns true if the bid is successfully placed\n function bid(uint _productId, bytes32 _bid) payable public returns (bool){\n   // Need to query the stores mapping to get the pointer to the product struct\n   // Not sure why, but in this case it seems we are persiting this to the chain\n   Product storage product = stores[productIdInStore[_productId]][_productId];\n\n   //Doing some checks, checking contract state, using require\n   //now = current block's timestamp\n   require (now >= product.auctionStartTime); //the auction must have started\n   require (now <= product.auctionEndTime); //the auction must not have ended\n\n   require (msg.value > product.startPrice); //this is kind of a strange\n   //constaint, why?  Wouldn't this just be a failed bid at the end?\n\n\n   //need to add to the Bids struct by bidder and bid hash\n   //(the same sender can bid twice)\n   product.bids[msg.sender][_bid] = Bid(msg.sender, _productId, msg.value, false);\n\n   product.totalBids += 1; //Increment bid count\n\n   //if all is well say so\n   return true;\n }\n\n function revealBid(uint _productId, string _amountBid, string _secret) public returns (bool){\n   //hwell, let's see the hash would have been....\n   bytes32 sealedBid = sha3(_amountBid, _secret);\n\n   //ok, let's get this product struct, don't ask me why we record it to the\n   //blockchain\n   Product storage currentProduct = stores[productIdInStore[_productId]][_productId];\n\n   //let's make sure the auction has ended...\n   require (now > currentProduct.auctionEndTime);\n\n   //Liar.  My fan fucking lied to me.  No corresponding hash found: This means\n   //the user is trying to reveal something which wasn't even bid.\n   //In that case, just throw an exception using a require\n\n   //We'll do this by looking up the bid\n   Bid memory bidInfo = currentProduct.bids[msg.sender][sealedBid];\n   //is there a bidder?  presumably this would be 0 if there was no bidder, I\n   //wonder why we wouldn't check to make sure the bidder is not = sender ???\n   require(bidInfo.bidder> 0);\n   //let's make sure the bid wasn't yet revealed, we can't reveal twice\n   require(bidInfo.revealed == false);\n\n   //OK.  we have a valid bid.  no time to see if we are the top bidder or if\n   //we should issue a refund.\n   uint refund;\n\n   uint amountInBid = stringToUint(_amountBid);\n\n   uint amountSendToContract = bidInfo.value;\n\n   //Bid amount < sent amount: The user for example bid $10 but only sent $5.\n   //Since it is invalid, we will just refund this amount to the user.\n   if(amountInBid < amountSendToContract){\n     refund = amountSendToContract;\n   }\n   //Bid amount >= sent amount: It's a valid bid. We will now check to see\n   // if we should record this bid.\n   else {\n     //First reveal: If this is the first valid bid reveal, we record this\n     // as the highest bid and also record who bid this value. We also set\n     // the second highest bid to the product starting price (If no one else\n     // reveals, this user just pays the start price. Remember the winner\n     // always pays the second highest price?)\n\n     //check if this is the first reveal by seeing if highestBidder is zero\n     if(currentProduct.highestBidder == 0){\n       currentProduct.highestBidder == msg.sender;\n       currentProduct.highestBid == amountInBid;\n       currentProduct.secondHighestBid == currentProduct.startPrice;\n\n       //refund anything not used by the bid\n       refund = amountSendToContract - amountInBid;\n     }\n\n     //Higher Bid: If the user reveals and their bid is higher than the current\n     //highest revealed bid, we record this bidder and their bid as highest\n     // and set the second highest bid value to old bid amount\n\n     else if (amountInBid > currentProduct.highestBid){\n       currentProduct.secondHighestBid == currentProduct.highestBid;\n       //refund the previous bidder his bid\n       currentProduct.highestBidder.transfer(currentProduct.highestBid);\n\n       currentProduct.highestBidder == msg.sender;\n       currentProduct.highestBid == amountInBid;\n       refund = amountSendToContract - amountInBid;\n     }\n\n     //Lower Bid: If the bid is lower than highest bid, it's a losing bid.\n     //But we will also check if this is lower than the second highest bid.\n     //If yes, we just refund the item because they lost otherwise set this\n     //amount to second highest bid.\n     else if (amountInBid <= currentProduct.highestBid){\n        if(amountInBid > currentProduct.secondHighestBid){\n          currentProduct.secondHighestBid = amountInBid;\n        }\n\n        refund = amountSendToContract;\n     }\n   }\n\n   //Mark as revealed, not sure what for yet... let's see\n   currentProduct.bids[msg.sender][sealedBid].revealed = true;\n\n   if(refund > 0){\n     msg.sender.transfer(refund);\n   }\n }\n\n function addProductToStore(string _name, string _category, string _imageLink,\n   string _descLink, uint _auctionStartTime, uint _auctionEndTime,\n   uint _startPrice, ProductCondition _condition){\n     /*require is control flow, asset is for debugging/preventing structurally\n     incorrect stuff*/\n     require(_auctionStartTime < _auctionEndTime);\n     productIndex += 1;\n\n     /*We have used a keyword called memory to store the product\n     in both the functions. The reason we use that keyword is to tell the\n     EVM that this object is only used as a temporary variable. It will be\n     cleared from memory as soon as that function completes execution.\n     You can read more about memory and storage here\n     */\n     Product memory product = Product(productIndex, _name, _category, _imageLink,\n        _descLink, _auctionStartTime, _auctionEndTime, _startPrice, 0, 0, 0, 0,\n        ProductStatus.Open, ProductCondition(_condition));\n\n    //add product to store\n    stores[msg.sender][productIndex] = product;\n    //map the product back to store\n    productIdInStore[productIndex] = msg.sender;\n   }\n\n\n   /// @notice this is a public function that allows people to view a Product\n   /// @dev\n   /// @param _productId id of the product you want the details of\n   /// @return returns id, name, category, imageLink, descLink, auctionStartTime,\n   /// auctionEndTime, startPrice, condition\n   function getProduct(uint _productId) view public returns (uint, string, string,\n     string, string, uint, uint, uint, ProductStatus, ProductCondition){\n       Product memory product = stores[productIdInStore[_productId]][_productId];\n       return(product.id, product.name, product.category, product.imageLink,\n         product.descLink, product.auctionStartTime, product.auctionEndTime,\n         product.startPrice, product.status, product.condition);\n     }\n\n    //Apparently the stringToUint function is not something that comes with\n    //Ethereum...\n    /// @notice this is a private function turns strings to ints\n    /// @dev this function uses the fact that ints are in order in the character\n    /// set to derive the value\n    /// @param _str a string that you want to convert to an int\n    /// @return returns the unit version of the string\n    function stringToUint(string _str) pure private returns (uint){\n      //pure means this function doesn't write or read from the blockchain\n      bytes memory b = bytes(_str);\n      uint result = 0;\n      for (uint i = 0; i < b.length; i++) {\n        if (b[i] >= 48 && b[i] <= 57) {\n          result = result * 10 + (uint(b[i]) - 48);\n        }\n      }\n      return result;\n    }\n\n    function highestBidderInfo(uint _productId) view public returns (address, uint, uint) {\n      Product memory product = stores[productIdInStore[_productId]][_productId];\n      return (product.highestBidder, product.highestBid, product.secondHighestBid);\n    }\n\n    function totalBids(uint _productId) view public returns (uint) {\n      Product memory product = stores[productIdInStore[_productId]][_productId];\n      return product.totalBids;\n    }\n\n}\n",
  "sourcePath": "/home/rusty/Code/ebay_dapp/contracts/EcommerceStore.sol",
  "compiler": {
    "name": "solc",
    "version": "0.4.23+commit.124ca40d.Emscripten.clang"
  },
  "schemaVersion": "2.0.0",
  "updatedAt": "2018-05-28T19:54:25.127Z"
}