{
  "contractName": "EcommerceStore",
  "abi": [
    {
      "constant": true,
      "inputs": [],
      "name": "productIndex",
      "outputs": [
        {
          "name": "",
          "type": "uint256"
        }
      ],
      "payable": false,
      "stateMutability": "view",
      "type": "function"
    },
    {
      "inputs": [],
      "payable": false,
      "stateMutability": "nonpayable",
      "type": "constructor"
    },
    {
      "constant": false,
      "inputs": [
        {
          "name": "_name",
          "type": "string"
        },
        {
          "name": "_category",
          "type": "string"
        },
        {
          "name": "_imageLink",
          "type": "string"
        },
        {
          "name": "_descLink",
          "type": "string"
        },
        {
          "name": "_auctionStartTime",
          "type": "uint256"
        },
        {
          "name": "_auctionEndTime",
          "type": "uint256"
        },
        {
          "name": "_startPrice",
          "type": "uint256"
        },
        {
          "name": "_condition",
          "type": "uint8"
        }
      ],
      "name": "addProductToStore",
      "outputs": [],
      "payable": false,
      "stateMutability": "nonpayable",
      "type": "function"
    },
    {
      "constant": true,
      "inputs": [
        {
          "name": "_productId",
          "type": "uint256"
        }
      ],
      "name": "getProduct",
      "outputs": [
        {
          "name": "",
          "type": "uint256"
        },
        {
          "name": "",
          "type": "string"
        },
        {
          "name": "",
          "type": "string"
        },
        {
          "name": "",
          "type": "string"
        },
        {
          "name": "",
          "type": "string"
        },
        {
          "name": "",
          "type": "uint256"
        },
        {
          "name": "",
          "type": "uint256"
        },
        {
          "name": "",
          "type": "uint256"
        },
        {
          "name": "",
          "type": "uint8"
        },
        {
          "name": "",
          "type": "uint8"
        }
      ],
      "payable": false,
      "stateMutability": "view",
      "type": "function"
    }
  ],
  "bytecode": "0x6060604052341561000f57600080fd5b60008081905550610d15806100256000396000f300606060405260043610610057576000357c0100000000000000000000000000000000000000000000000000000000900463ffffffff16806356b953501461005c578063b9db15b4146101a9578063c897d5a6146103cf575b600080fd5b341561006757600080fd5b6101a7600480803590602001908201803590602001908080601f0160208091040260200160405190810160405280939291908181526020018383808284378201915050505050509190803590602001908201803590602001908080601f0160208091040260200160405190810160405280939291908181526020018383808284378201915050505050509190803590602001908201803590602001908080601f0160208091040260200160405190810160405280939291908181526020018383808284378201915050505050509190803590602001908201803590602001908080601f0160208091040260200160405190810160405280939291908181526020018383808284378201915050505050509190803590602001909190803590602001909190803590602001909190803560ff169060200190919050506103f8565b005b34156101b457600080fd5b6101ca60048080359060200190919050506106be565b604051808b8152602001806020018060200180602001806020018a815260200189815260200188815260200187600281111561020257fe5b60ff16815260200186600181111561021657fe5b60ff16815260200185810385528e818151815260200191508051906020019080838360005b8381101561025657808201518184015260208101905061023b565b50505050905090810190601f1680156102835780820380516001836020036101000a031916815260200191505b5085810384528d818151815260200191508051906020019080838360005b838110156102bc5780820151818401526020810190506102a1565b50505050905090810190601f1680156102e95780820380516001836020036101000a031916815260200191505b5085810383528c818151815260200191508051906020019080838360005b83811015610322578082015181840152602081019050610307565b50505050905090810190601f16801561034f5780820380516001836020036101000a031916815260200191505b5085810382528b818151815260200191508051906020019080838360005b8381101561038857808201518184015260208101905061036d565b50505050905090810190601f1680156103b55780820380516001836020036101000a031916815260200191505b509e50505050505050505050505050505060405180910390f35b34156103da57600080fd5b6103e2610b62565b6040518082815260200191505060405180910390f35b610400610b68565b838510151561040e57600080fd5b600160008082825401925050819055506101c06040519081016040528060005481526020018a8152602001898152602001888152602001878152602001868152602001858152602001848152602001600073ffffffffffffffffffffffffffffffffffffffff1681526020016000815260200160008152602001600081526020016000600281111561049c57fe5b81526020018360018111156104ad57fe5b815250905080600160003373ffffffffffffffffffffffffffffffffffffffff1673ffffffffffffffffffffffffffffffffffffffff16815260200190815260200160002060008054815260200190815260200160002060008201518160000155602082015181600101908051906020019061052a929190610c1c565b506040820151816002019080519060200190610547929190610c1c565b506060820151816003019080519060200190610564929190610c1c565b506080820151816004019080519060200190610581929190610c1c565b5060a0820151816005015560c0820151816006015560e082015181600701556101008201518160080160006101000a81548173ffffffffffffffffffffffffffffffffffffffff021916908373ffffffffffffffffffffffffffffffffffffffff160217905550610120820151816009015561014082015181600a015561016082015181600b015561018082015181600c0160006101000a81548160ff0219169083600281111561062e57fe5b02179055506101a082015181600c0160016101000a81548160ff0219169083600181111561065857fe5b021790555090505033600260008054815260200190815260200160002060006101000a81548173ffffffffffffffffffffffffffffffffffffffff021916908373ffffffffffffffffffffffffffffffffffffffff160217905550505050505050505050565b60006106c8610c9c565b6106d0610c9c565b6106d8610c9c565b6106e0610c9c565b60008060008060006106f0610b68565b60016000600260008f815260200190815260200160002060009054906101000a900473ffffffffffffffffffffffffffffffffffffffff1673ffffffffffffffffffffffffffffffffffffffff1673ffffffffffffffffffffffffffffffffffffffff16815260200190815260200160002060008d81526020019081526020016000206101c0604051908101604052908160008201548152602001600182018054600181600116156101000203166002900480601f0160208091040260200160405190810160405280929190818152602001828054600181600116156101000203166002900480156108235780601f106107f857610100808354040283529160200191610823565b820191906000526020600020905b81548152906001019060200180831161080657829003601f168201915b50505050508152602001600282018054600181600116156101000203166002900480601f0160208091040260200160405190810160405280929190818152602001828054600181600116156101000203166002900480156108c55780601f1061089a576101008083540402835291602001916108c5565b820191906000526020600020905b8154815290600101906020018083116108a857829003601f168201915b50505050508152602001600382018054600181600116156101000203166002900480601f0160208091040260200160405190810160405280929190818152602001828054600181600116156101000203166002900480156109675780601f1061093c57610100808354040283529160200191610967565b820191906000526020600020905b81548152906001019060200180831161094a57829003601f168201915b50505050508152602001600482018054600181600116156101000203166002900480601f016020809104026020016040519081016040528092919081815260200182805460018160011615610100020316600290048015610a095780601f106109de57610100808354040283529160200191610a09565b820191906000526020600020905b8154815290600101906020018083116109ec57829003601f168201915b505050505081526020016005820154815260200160068201548152602001600782015481526020016008820160009054906101000a900473ffffffffffffffffffffffffffffffffffffffff1673ffffffffffffffffffffffffffffffffffffffff1673ffffffffffffffffffffffffffffffffffffffff16815260200160098201548152602001600a8201548152602001600b8201548152602001600c820160009054906101000a900460ff166002811115610ac257fe5b6002811115610acd57fe5b8152602001600c820160019054906101000a900460ff166001811115610aef57fe5b6001811115610afa57fe5b815250509050806000015181602001518260400151836060015184608001518560a001518660c001518760e00151886101800151896101a001518898508797508696508595509a509a509a509a509a509a509a509a509a509a50509193959799509193959799565b60005481565b6101c06040519081016040528060008152602001610b84610cb0565b8152602001610b91610cb0565b8152602001610b9e610cb0565b8152602001610bab610cb0565b8152602001600081526020016000815260200160008152602001600073ffffffffffffffffffffffffffffffffffffffff16815260200160008152602001600081526020016000815260200160006002811115610c0457fe5b815260200160006001811115610c1657fe5b81525090565b828054600181600116156101000203166002900490600052602060002090601f016020900481019282601f10610c5d57805160ff1916838001178555610c8b565b82800160010185558215610c8b579182015b82811115610c8a578251825591602001919060010190610c6f565b5b509050610c989190610cc4565b5090565b602060405190810160405280600081525090565b602060405190810160405280600081525090565b610ce691905b80821115610ce2576000816000905550600101610cca565b5090565b905600a165627a7a72305820e19c6c3abb090db22960e9d0286b4050be88845bb17ac4abd769999af3d690070029",
  "source": "pragma solidity ^0.4.13;\n\ncontract EcommerceStore {\n enum ProductStatus { Open, Sold, Unsold }\n enum ProductCondition { New, Used }\n\n uint public productIndex;\n mapping (address => mapping(uint => Product)) stores;\n mapping (uint => address) productIdInStore;\n\n struct Product {\n  uint id;\n  string name;\n  string category;\n  string imageLink;\n  string descLink;\n  uint auctionStartTime;\n  uint auctionEndTime;\n  uint startPrice;\n  //these are set by system\n  address highestBidder;\n  uint highestBid;\n  uint secondHighestBid;\n  uint totalBids;\n  ProductStatus status;\n  //until here\n  ProductCondition condition;\n }\n\n function EcommerceStore() public {\n  productIndex = 0;\n }\n\n function addProductToStore(string _name, string _category, string _imageLink,\n   string _descLink, uint _auctionStartTime, uint _auctionEndTime,\n   uint _startPrice, ProductCondition _condition){\n     /*require is control flow, asset is for debugging/preventing structurally\n     incorrect stuff*/\n     require(_auctionStartTime < _auctionEndTime);\n     productIndex += 1;\n\n     /*We have used a keyword called memory to store the product\n     in both the functions. The reason we use that keyword is to tell the\n     EVM that this object is only used as a temporary variable. It will be\n     cleared from memory as soon as that function completes execution.\n     You can read more about memory and storage here\n     */\n     Product memory product = Product(productIndex, _name, _category, _imageLink,\n        _descLink, _auctionStartTime, _auctionEndTime, _startPrice, 0, 0, 0, 0,\n        ProductStatus.Open, ProductCondition(_condition));\n\n    //add product to store\n    stores[msg.sender][productIndex] = product;\n    //map the product back to store\n    productIdInStore[productIndex] = msg.sender;\n   }\n\n//we don't return the private parts of the struct it seems\n   function getProduct(uint _productId) view public returns (uint, string, string,\n     string, string, uint, uint, uint, ProductStatus, ProductCondition){\n       Product memory product = stores[productIdInStore[_productId]][_productId];\n       return(product.id, product.name, product.category, product.imageLink,\n         product.descLink, product.auctionStartTime, product.auctionEndTime,\n         product.startPrice, product.status, product.condition);\n     }\n}\n",
  "sourcePath": "/Users/chrisrusyniak/Documents/ethereum_voting_dapp/decentralmkt/contracts/EcommerceStore.sol",
  "compiler": {
    "name": "solc",
    "version": "0.4.19+commit.c4cbbb05.Emscripten.clang"
  },
  "schemaVersion": "2.0.0",
  "updatedAt": "2018-05-01T16:34:27.885Z"
}